:100000000C945E000C9486000C9486000C94860080
:100010000C9486000C9486000C9486000C94860048
:100020000C9486000C9408170C9486000C9486009F
:100030000C9486000C9486000C9486000C94860028
:100040000C94FA100C9486000C94DD140C9420157A
:100050000C9486000C9486000C9486000C94860008
:100060000C9486000C94860000000007000201003A
:100070000003040600000000000000000102040864
:100080001020408001020408102001020408102002
:10009000040404040404040402020202020203032E
:1000A0000303030300000000250028002B000000CC
:1000B0000000240027002A00EB0FE31511241FBEC7
:1000C000CFEFD8E0DEBFCDBF13E0A0E0B1E0E6ECBB
:1000D000F5E302C005900D92A630B107D9F727E0ED
:1000E000A6E0B3E001C01D92AC32B207E1F710E028
:1000F000CEE5D0E004C02197FE010E94CC1ACC3599
:10010000D107C9F70E9436140C94FE170C94000016
:10011000DC01FB0112968C911297808313968C91CF
:100120001397818314968C911497828315968C91E2
:100130001597838316968C911697848317968C91C6
:100140001797858318968C911897868319968C91AA
:10015000878388E090E00895FC01DB014C9150E03A
:1001600060E070E0428353836483758311968C91C1
:100170001197582B428353836483758312968C9115
:100180001297682B428353836483758313968C91F3
:100190001397782B428353836483758314964C9111
:1001A000149750E060E070E0468357836087718762
:1001B00015968C911597582B4683578360877187C6
:1001C00016968C911697682B4683578360877187A4
:1001D00017968C91782B468357836087718788E0C8
:1001E00090E0089586E091E0089584E191E008951B
:1001F00085E391E008958EE491E008958FE691E023
:10020000089582E891E008958CE792E0089583EAEA
:1002100091E0089584EC91E008958AED91E00895CD
:100220008BEF91E008958FE092E00895FC0186A1A4
:1002300097A108958BEF91E008958FE092E00895E3
:10024000FC01EA54FD4F808108952F923F924F9216
:100250005F926F927F928F929F92AF92BF92CF9256
:10026000DF92EF92FF920F931F93CF93DF938C0156
:10027000FC01C480D580E680F78020E030E0A90151
:10028000C701B6010E94D61920E030E0A901181676
:10029000A4F5F801628D738D848D958D0E94771879
:1002A0008111BEC22AE037ED43EA5BE3C701B60124
:1002B0000E947C180E94EE186B017C011B0141E03A
:1002C000609138038DEE96E00E947F1641E06091C8
:1002D00039038DEE96E00E947F16A60160913803E7
:1002E0008DEE96E00E94C416A601609139038DEE52
:1002F00096E00E94C416E60164C2C701B6010E94DE
:10030000771887FF2BC020E030E0A901F801628D4B
:10031000738D848D958D0E94771881111FC0C70140
:10032000B60190582AE037ED43EA5BE30E947C185F
:100330000E94EE186B017C011B01EB0140E0609113
:1003400038038DEE96E00E947F1640E060913903FD
:100350008DEE96E00E947F16A60126C220E030E0D6
:10036000A901C701B6010E9477188111C8C0F80120
:10037000828C938CA48CB58C20E030E0A901C5015F
:10038000B4010E94771820E030E0A90118160CF49F
:100390006CC0C501B4010E94D6192DEC3CEC4CECAC
:1003A0005DE318161CF4C501B40103C0C501B40116
:1003B00090580E94DB192B013C01A7019601C7014F
:1003C000B6010E940B186B017C019B01AC01C301BB
:1003D000B2010E940A1820E030E048EC52E40E948A
:1003E000DB190E94EE182B013C011B0120E030E0DC
:1003F000A901C501B4010E94D61918163CF42DECD0
:100400003CEC4CEC5DE3C501B40107C0C501B4018F
:1004100090582DEC3CEC4CEC5DE30E94DB19A701FD
:1004200096010E940B1820E030E048EC52E40E9454
:10043000DB190E94EE186B017C01EB0141E0609139
:1004400038038DEE96E00E947F1640E060913903FC
:100450008DEE96E00E947F16A201609138038DEE2A
:1004600096E00E94C416A601A6C1C501B4010E946F
:10047000D61987FD44C02DEC3CEC4CEC5DE3C50186
:10048000B4010E94DB192B013C01A7019601C701B1
:10049000B6010E940B186B017C019B01AC01C301EA
:1004A000B2010E940B1820E030E048EC52E40E94B8
:1004B000DB190E94EE184B015C011B01A70196019C
:1004C000C301B2010E940A1820E030E048EC52E477
:1004D0000E94DB190E94EE186B017C01EB0140E0E9
:1004E000609138038DEE96E00E947F1641E06091A6
:1004F00039038DEE96E00E947F16A401AECF20E076
:1005000030E0A901C701B6010E94D61918160CF0F7
:1005100058C1F801828C938CA48CB58C20E030E01B
:10052000A901C501B4010E94771820E030E0A901BB
:1005300018160CF4CEC0C501B4010E94D6192DECDA
:100540003CEC4CEC5DE318161CF4C501B40103C08F
:10055000C501B40190580E94DB192B013C01A70191
:100560009601C701B6010E940B186B017C019B012B
:10057000AC01C301B2010E940A1820E030E0A901D9
:100580000E94D61920E030E0A9011816BCF4C5017C
:10059000B4010E94D6192DEC3CEC4CEC5DE318162E
:1005A0001CF4C501B40103C0C501B40190580E94F8
:1005B000DB19A70196010E940A1817C0C501B401F2
:1005C0000E94D6192DEC3CEC4CEC5DE318161CF4A3
:1005D000C501B40103C0C501B40190580E94DB19E4
:1005E000A70196010E940A18905820E030E048ECDC
:1005F00052E40E94DB190E94EE181B0120E030E05B
:10060000A901C501B4010E94D6192DEC3CEC4CECBB
:100610005DE318161CF4C501B40103C0C501B401A3
:1006200090580E94DB19A70196010E940B1820E048
:1006300030E0A9010E94D61920E030E0A901181687
:10064000DCF4C501B4010E94D61918163CF42DEC57
:100650003CEC4CEC5DE3C501B40107C0C501B4013D
:1006600090582DEC3CEC4CEC5DE30E94DB19A701AB
:1006700096010E940B181BC0C501B4010E94D61937
:1006800018163CF42DEC3CEC4CEC5DE3C501B401D8
:1006900007C0C501B40190582DEC3CEC4CEC5DE377
:1006A0000E94DB19A70196010E940B18905820E0C8
:1006B00030E048EC52E40E94DB190E94EE18EB0196
:1006C00040E0609138038DEE96E00E947F1640E096
:1006D00064C0C501B4010E94D61987FD72C02DEC1B
:1006E0003CEC4CEC5DE3C501B4010E94DB194B010D
:1006F0005C01A7019601C701B6010E940B182B01EE
:100700003C019B01AC01C501B4010E940B186B01B7
:100710007C0120E030E0A9010E94D61918163CF4B3
:1007200020E030E048EC52E4C701B60107C0C70141
:10073000B601905820E030E048EC52E40E94DB190A
:100740000E94EE181B01A3019201C501B4010E9491
:100750000A186B017C0120E030E0A9010E94D61943
:1007600018163CF420E030E048EC52E4C701B60132
:1007700007C0C701B601905820E030E048EC52E4D1
:100780000E94DB190E94EE18EB0141E060913803F2
:100790008DEE96E00E947F1641E0609139038DEE68
:1007A00096E00E947F16A101609138038DEE96E0DD
:1007B0000E94C416AE01609139038DEE96E00E944E
:1007C000C416B101330C880B990B0E942619609353
:1007D0003E0370933F038093400390934103BE0117
:1007E000DD0F880B990B0E942619609342037093CA
:1007F00043038093440390934503DF91CF911F916E
:100800000F91FF90EF90DF90CF90BF90AF909F90AF
:100810008F907F906F905F904F903F902F900895B2
:1008200020E030E0A901C701B6010E9477188823B3
:1008300009F49DCD6ECEAF92BF92CF92DF92EF9230
:10084000FF920F931F93CF93DF9300D000D01F929E
:10085000CDB7DEB78C016B01643671053CF0FC014D
:10086000EA54FD4F8081882309F478C0DA01ED91C4
:10087000FC910190F081E02DB801695C7E4FCA01C6
:1008800009957801B0EDEB1ABEEFFB0A2FEFF701E7
:1008900020832EEF3196208331968083319690838A
:1008A0003196292F280F209520833196C082D801B8
:1008B000AA5CBE4FDC9245E050E020E030E0BC0195
:1008C0006A5F7F4F6417750734F0A1912A0F311DBD
:1008D0004F5F5F4FF7CF6C01F8E0CF0ED11C800F58
:1008E000911FFC01E95CFE4F2095208329E1C2168F
:1008F00021E0D206CCF45701C5018E199F098C1551
:100900009D0584F4D80112968D919C911397F50161
:1009100061915F01DC01ED91FC910190F081E02D8E
:100920000995EACFC6011CC084EB92E09A838983C3
:1009300083E08B8380E392E09D838C83D801ED91EB
:10094000FC910190F081E02DAE014F5F5F4F67E0B9
:1009500070E0C80109958FEF9FEF02C080E090E042
:100960000F900F900F900F900F90DF91CF911F91EC
:100970000F91FF90EF90DF90CF90BF90AF900895D0
:100980008F929F92AF92BF92CF92DF92EF92FF929F
:100990000F931F93CF93DF93EC01CB01BA018B012F
:1009A0009C0147E135952795179507954A95D1F70D
:1009B000112722273327011511052105310521F0C3
:1009C00000581C4F2F4F3F4F188219821A826B011B
:1009D0007C0145E0CC0CDD1CEE1CFF1C4A95D1F7D8
:1009E000CB826B017C0153E0F594E794D794C794D4
:1009F0005A95D1F7CC826B017C01EBE0F594E7943A
:100A0000D794C794EA95D1F7CD8268017901F4E0D3
:100A1000CC0CDD1CEE1CFF1CFA95D1F74B015C01E0
:100A2000A3E1B594A79497948794AA95D1F7482DFC
:100A30004F70C42ACE8268017901B4E0F594E7943E
:100A4000D794C794BA95D1F720E030E0A9010E946D
:100A5000771887FD02C0CF8203C00C2D00680F837A
:100A600088E090E0DF91CF911F910F91FF90EF9080
:100A7000DF90CF90BF90AF909F908F900895EF92AE
:100A8000FF920F931F93CF93DF937C018B01FC01A7
:100A90004281538164817581C8010E94C004EC01C8
:100AA000F7014681578160857185C8018C0F9D1FB4
:100AB0000E94C004C80FD91FF70142855385648581
:100AC0007585C8018C0F9D1F0E94C0048C0F9D1F4F
:100AD000DF91CF911F910F91FF90EF900895EF92CA
:100AE000FF920F931F93CF93DF937C01EB0102964C
:100AF0000E943F058C01BE01680F791FC701409617
:100B00000E943F05800F911FDF91CF911F910F91A0
:100B1000FF90EF9008958F929F92AF92BF92CF92E5
:100B2000DF92EF92FF920F931F93FC01DB01C380D2
:100B3000C294C69427E0C2228C2C912CA12CB12CFB
:100B40008D929D92AD92BC921397C480D12CE12CD2
:100B5000F12C33E0CC0CDD1CEE1CFF1C3A95D1F7D8
:100B6000C828D928EA28FB28CD92DD92ED92FC9284
:100B70001397058110E020E030E04BE0000F111FDB
:100B8000221F331F4A95D1F7C02AD12AE22AF32A1D
:100B9000CD92DD92ED92FC92139706810F7010E0DA
:100BA00020E030E053E1000F111F221F331F5A9540
:100BB000D1F70C291D292E293F290D931D932D9323
:100BC0003C931397868182958F7047814F7750E0D1
:100BD00060E070E094E0440F551F661F771F9A9500
:100BE000D1F7482B4115510561057105A1F0405819
:100BF00053406109710997E1440F551F661F771F24
:100C00009A95D1F7402B512B622B732B4D935D930B
:100C10006D937C9313974781407850E060E070E0DB
:100C2000742F6627552744270D911D912D913C91D6
:100C30001397402B512B622B732B4D935D936D9328
:100C40007C93139788E090E01F910F91FF90EF90B5
:100C5000DF90CF90BF90AF909F908F900895EF92CC
:100C6000FF920F931F93CF93DF938C017B01BC0105
:100C70006E5F7F4FC7010E948B05EC01B8016A5F70
:100C80007F4FC7018C0F9D1F0E948B05C80FD91F76
:100C9000B801665F7F4FC7018C0F9D1F0E948B05B7
:100CA0008C0F9D1FDF91CF911F910F91FF90EF90BF
:100CB0000895EF92FF920F931F93CF93DF937C01E0
:100CC000EB0102960E942F068C01BE01680F791F6E
:100CD000C70140960E942F06800F911FDF91CF9190
:100CE0001F910F91FF90EF9008950F931F93CF9353
:100CF000DF938C01EC012696CE010E945906D801A3
:100D00009496ED91FC919597CE01DF91CF911F9133
:100D10000F9109940F931F9361E088E00E94B41132
:100D200060E088E00E94F0118DEE96E00E941E16B1
:100D300008EC10E02FEF45E062E08DEE96E00E94B7
:100D40002616809338032FEF46E063E08DEE96E0A1
:100D50000E94261680933903609138038DEE96E049
:100D60000E946D16609139038DEE96E00E946D161B
:100D700040915C0350915D0360915E0370915F034D
:100D800080915A0390915B030E945B1510920506B7
:100D900010920406109207061092060610920B0697
:100DA00010920A061092090610920806E2EDF5E08C
:100DB00080E090E021913191232B81F4FC01EE0F32
:100DC000FF1FEE52FA4F20E133E0318320838C592C
:100DD0009F4F909313038093120304C001968931AF
:100DE000910541F7E0EAF5E080E090E02191319152
:100DF000232BB1F4FC01EE0FFF1FE056FA4F26E063
:100E000033E03183208383589F4F90930B0380936B
:100E10000A0388E593E090930D0380930C0304C0CC
:100E200001968931910511F71F910F910895CF9285
:100E3000DF92EF92FF9220E030E06A017B01022E08
:100E400004C0F694E794D794C7940A94D2F7FC01AF
:100E5000C192CF01285F3F4F2032310571F7FF90DB
:100E6000EF90DF90CF9008954F925F926F927F92B4
:100E7000AF92BF92CF92DF92EF92FF920F931F93A8
:100E8000CF93DF93EC017B018A81FB0180838B810F
:100E900081838C8182838D818383DB01179640E07F
:100EA00050E0BA01E4E0F0E04A805B806C807D8035
:100EB0008F010C5F1F4F4415550566057705C0F47B
:100EC0008A859B85E80FF91F3497D0802181928114
:100ED0008381FD013397D0823196208331969083B0
:100EE0008C93F8014F5F5F4F6F4F7F4F1496DCCFAD
:100EF000EE0DFF1D8C8580838D8581838E85828399
:100F00008F85838380E090E040E050E0BA014C841C
:100F10005D846E847F84F701E00FF11F0C5F1F4F2B
:100F20004415550566057705B8F4AC89BD89A80F49
:100F3000B91FCC901196DC90119712963C911297A4
:100F400013962C91C082D182328323834F5F5F4FEF
:100F50006F4F7F4F0496DBCF8E8980838F8981838B
:100F6000888D8283898D8383412C512C32018E8917
:100F70009F89A88DB98D481659066A067B0680F5AB
:100F80005201AA0CBB1CEC8DFD8DEA0DFB1DA0814E
:100F9000B181FD0101900020E9F731976F01CA1A74
:100FA000DB0AA60160E070E0C701800F911F0E947C
:100FB00017070C5F1F4F8C8D9D8DFC01EA0DFB1DEB
:100FC00060817181A601C701800F911F0E940118E5
:100FD0000C0D1D1DFFEF4F1A5F0A6F0A7F0AC7CF66
:100FE000C801DF91CF911F910F91FF90EF90DF909B
:100FF000CF90BF90AF907F906F905F904F9008958B
:10100000EF92FF920F931F93CF93DF938C017B019D
:10101000EC018A81FB018193AB81BC81ED010990D8
:101020000020E9F72197CA1BDB0BAE0160E070E0FE
:10103000CF010E941707F80163817481AE01C701D7
:1010400005960E940118CE010596DF91CF911F9160
:101050000F91FF90EF900895CF92DF92EF92FF9261
:101060000F931F93CF93DF936C01EB01FC018281FF
:10107000888383818983A481B581FD01019000204B
:10108000E9F731978F010A1B1B0BA80160E070E0A4
:10109000CE0102960E941707F60164817581A801AE
:1010A000CE0106960E940118C8010696F601A68197
:1010B000B781FD0101900020E9F731977F01EA1A1D
:1010C000FB0AA70160E070E08C0F9D1F0E941707CC
:1010D000065F1F4FF60166817781A701CE01800F61
:1010E000911F0E9401180E0D1F1DF601A085B185EC
:1010F000FD0101900020E9F731977F01EA1AFB0A10
:10110000A70160E070E0CE01800F911F0E941707D9
:101110000C5F1F4FF60160857185A701CE01800F1E
:10112000911F0E940118C8018E0D9F1DF601628556
:10113000438534852585C80FD91F688349833A8341
:101140002B830496DF91CF911F910F91FF90EF9029
:10115000DF90CF900895CF92DF92EF92FF92FC0143
:101160001082118212821382DB0120E030E04D9167
:1011700050E0022E02C0440F551F0A94E2F7052EDC
:10118000000C660B770BC080D180E280F3804C2985
:101190005D296E297F294083518362837383285F91
:1011A0003F4F2032310519F7FF90EF90DF90CF903D
:1011B00008958F929F92AF92BF92CF92DF92EF925B
:1011C000FF920F931F93CF93DF9300D000D0CDB742
:1011D000DEB77C018B01FB018191BF01F7018283A6
:1011E000CE0101960E94AB0889819A81AB81BC81B6
:1011F0004C015D01F5E08F0E911CA11CB11C680132
:1012000025E0C20ED11CA601401B510B60E070E02E
:10121000481559056A057B0548F4F60141916F01AF
:101220009F0122503109F9014083EDCFF801E80F09
:10123000F91F14820C5F1F4FF70114830383059677
:101240000F900F900F900F90DF91CF911F910F9102
:10125000FF90EF90DF90CF90BF90AF909F908F90D6
:1012600008954F925F926F927F928F929F92AF926A
:10127000BF92CF92DF92EF92FF920F931F93CF9383
:10128000DF93CDB7DEB72C970FB6F894DEBF0FBE55
:10129000CDBF7C018B01DB018C9190E0F701938342
:1012A000828311962C91922B938382836E5F7F4F62
:1012B000CE0109960E94AB0889849A84AB84BC84D1
:1012C000B501A4014A5F5F4F6F4F7F4FF80136961B
:1012D000CF01801B910BA0E0B0E084179507A60713
:1012E000B70728F48191DF0112978C93F1CFF801B1
:1012F000E80DF91D1582C8010596D70115969C9336
:101300008E931497B4016A5F7F4F600F711FCE01F7
:1013100005960E94AB08BAE08B0E911C4D815E8150
:101320006F8178852401092C000C66087708440E2B
:10133000551E661E771EF801E80DF91DCF01801BB2
:10134000910BA0E0B0E084159505A605B70528F43B
:101350008191DF0112978C93F1CF6401C40ED51EE9
:10136000B8016C0D7D1DFB0131971082C4010197FE
:10137000800F911FF70197838683CE0101960E940B
:10138000AB08A6014C5F5F4F49805A806B807C8020
:101390004A01052E000CAA08BB08840C951CA61C4B
:1013A000B71CF801E40FF51F9F01201B310BC90189
:1013B000A0E0B0E088159905AA05BB0528F4819145
:1013C000DF0112978C93F0CFCA01840D951DF801AF
:1013D000E80FF91FDF0111971C929A012150310982
:1013E000020F131FD70119961C930E931897218192
:1013F000428150E060E070E0BA0155274427522B4B
:101400002081422B2381722BF70142875387648707
:10141000758704962C960FB6F894DEBF0FBECDBF2D
:10142000DF91CF911F910F91FF90EF90DF90CF90C0
:10143000BF90AF909F908F907F906F905F904F90F4
:1014400008952F923F924F925F926F927F928F9268
:101450009F92AF92BF92CF92DF92EF92FF920F9343
:101460001F93CF93DF93CDB7DEB728970FB6F894CD
:10147000DEBF0FBECDBF8C015B01DB018C911196ED
:101480009C9111971296CC901297D12CE12CF12CB3
:101490007601DD24CC24D92AC82A13968C91F82A07
:1014A000F80182819381A481B5818C159D05AE05DB
:1014B000BF0570F4B601660F771F660F771F828530
:1014C00093850E942012D8011B969C938E931A97A5
:1014D000F801C282D382E482F582D5011796C12C2D
:1014E000D12C7601F4E08F2E912C98012A5F3F4F8A
:1014F000F8014281538164817581C4010496C41648
:10150000D506E606F70680F54C9150E060E070E005
:10151000742F662755274427FD013397E0814E2B12
:10152000FD013297E0815E2BFD013197E0816E2B4A
:10153000F80146835783608771874C01089742857D
:101540005385840F951FF901408151816281738118
:10155000FC014083518362837383FFEFCF1ADF0A5C
:10156000EF0AFF0A1496C4CFF401EA0DFB1D208197
:101570003181C280D12CE12CF12C7601DD24CC24E8
:10158000D32AC22A2381F22A4C01F8018485958549
:10159000A685B7858C159D05AE05BF0570F4B6010F
:1015A000660F771F660F771F848995890E94201226
:1015B000D80155969C938E935497F801C486D5868E
:1015C000E686F78620E030E0C12CD12C7601D801E8
:1015D0005096F8014485558566857785F501E80DB7
:1015E000F91DC4010496C416D506E606F70648F5AB
:1015F0009180428150E060E070E0BA0155274427B5
:10160000592990804929E3817E2BF801408B518B29
:10161000628B738B4C0184899589FC01E20FF31F67
:101620004D915D916D917C911397408351836283BD
:101630007383FFEFCF1ADF0AEF0AFF0A2C5F3F4FD9
:10164000C8CF20813181C280D12CE12CF12C7601D0
:10165000DD24CC24D32AC22A2381F22A4C01F801AA
:1016600086899789A08DB18D8C159D05AE05BF0526
:1016700060F4B601660F771F848D958D0E9420124D
:10168000D8015D969C938E935C97F801C68AD78AA1
:10169000E08EF18E412C512C32011801FAE12F0E0F
:1016A000311CF80186899789A08DB18D481659069D
:1016B0006A067B0608F05AC0B501680D791DCE0197
:1016C00001960E94AB0894012C5F3F4FC980DA80DD
:1016D000EB80FC80C901032E000CAA0BBB0BAC01F4
:1016E000BD014C0D5D1D6E1D7F1D4D835E836F839F
:1016F0007887F501E20FF31FAF014A195B09CA01B0
:10170000A0E0B0E04D815E816F81788584179507F8
:10171000A607B70728F44191DF0112974C93ECCF4D
:10172000C9018C0D9D1DF501E80FF91F319710823D
:10173000215031092A0D3B1DD8015B963C932E9315
:101740005A974C01C201880F991F5C96ED91FC914C
:101750005D97E80FF91FD1018D919C919183808352
:10176000BFEF4B1A5B0A6B0A7B0A9BCFC40128961A
:101770000FB6F894DEBF0FBECDBFDF91CF911F91A2
:101780000F91FF90EF90DF90CF90BF90AF909F9020
:101790008F907F906F905F904F903F902F90089523
:1017A0000F931F93CF93DF93CDB7DEB72A970FB672
:1017B000F894DEBF0FBECDBF8C018CE992E09A8316
:1017C00089831B821C821D821E821F8218861986B5
:1017D0001A86D801ED91FC910190F081E02DAE01C7
:1017E0004F5F5F4F6AE070E0C80109950E944411A5
:1017F000F80160877187828793872A960FB6F894DD
:10180000DEBF0FBECDBFDF91CF911F910F91089525
:101810004F925F926F927F92AF92BF92CF92DF9280
:10182000EF92FF920F931F93CF93DF93CDB7DEB765
:101830002E970FB6F894DEBF0FBECDBF8C0188EA9D
:1018400092E09A8389831C821B8288E692E09E83C1
:101850008D8398878F839A8789871B861C861D8630
:101860001E86680188EBC81A8DEFD80A7801A6E8B1
:10187000EA1AADEFFA0A98E1492E55245394612CE7
:10188000712CD601ED91FC913097B9F1848195814D
:101890009C838B83808191819E838D8382819381C0
:1018A000DC01ED91FC910480F581E02D099598878C
:1018B0008F83D601ED91FC9182819381DC01ED91C2
:1018C000FC910680F781E02D09959A8789874B86E0
:1018D0005C866D867E86F80180819181F601A0810B
:1018E000B18118966D917C911997DC01ED91FC9175
:1018F000AE014F5F5F4FC8010995B2E0CB0ED11C1E
:10190000CE14DF0409F0BDCF6801E4E5CE1AEDEF97
:10191000DE0A88E1482E55245394612C712CF7017E
:10192000A081B1811097E1F112968D919C9113974E
:101930009C838B8314968D919C9115979E838D83A8
:10194000ED91FC9111970480F581E02DCD01099571
:1019500098878F83D7018D919C91DC01ED91FC914B
:101960000680F781E02D09959A8789874B865C86EA
:101970006D867E86D801ED91FC91A080B180F70143
:1019800080819181DC01ED91FC910280F381E02D59
:101990000995AE014F5F5F4FBC01C801F501099584
:1019A000F2E0EF0EF11CEC14FD0409F0B8CFF801E1
:1019B000EA54FD4F81E080832E960FB6F894DEBF87
:1019C0000FBECDBFDF91CF911F910F91FF90EF9090
:1019D000DF90CF90BF90AF907F906F905F904F90CF
:1019E00008958F929F92AF92BF92CF92DF92EF9223
:1019F000FF920F931F93CF93DF93CDB7DEB72A9754
:101A00000FB6F894DEBF0FBECDBF8C015B018CE931
:101A100092E09A8389831B821C821D821E821F8210
:101A2000188619861A860E944411F801C084D18450
:101A3000E284F3849B01AC012C193D094E095F0936
:101A400069017A01B501CE0101960E94AC0088EED1
:101A5000882E83E0982EA12CB12CC701B601A501D8
:101A600094010E946C1ACB80DC80ED80FE80C20E57
:101A7000D31EE41EF51ECB82DC82ED82FE829B012A
:101A8000AC0160E472E48FE090E00E94481ACF80DD
:101A9000D884E984FA84DC01CB018C0D9D1DAE1D38
:101AA000BF1D8F839887A987BA870E944411CB8076
:101AB000DC80ED80FE8031E0C31AD108E108F10836
:101AC000A50194010E946C1AC21AD30AE40AF50A0D
:101AD000F801C486D586E686F786CF80D884E98467
:101AE000FA84F6E3DF1AF5E6EF0AF4ECFF0A9B014D
:101AF000AC0160E472E48FE090E00E94481AC61ADC
:101B0000D70AE80AF90AF801C08AD18AE28AF38A78
:101B1000B801605F7F4FC8010C960E94A8170E9411
:101B20004411F801E554FD4F6083718382839383F0
:101B30002A960FB6F894DEBF0FBECDBFDF91CF91CE
:101B40001F910F91FF90EF90DF90CF90BF90AF90DB
:101B50009F908F9008952F923F924F925F926F9235
:101B60007F928F929F92AF92BF92CF92DF92EF922D
:101B7000FF920F931F93CF93DF93CDB7DEB760979C
:101B80000FB6F894DEBF0FBECDBF988B8F870E9433
:101B900044114B015C012F85388925543D4F3E830C
:101BA0002D83F90180819181A281B381A5019401E6
:101BB000281B390B4A0B5B0BDA01C901893F9A429A
:101BC000A105B10528F0EF85F889EA54FD4F108290
:101BD0000F85188904551D4FD8018D919C91892B33
:101BE00081F0EF85F889E154FD4F80819181A281D8
:101BF000B38188159905AA05BB0518F4F80111826F
:101C000010826F847888FCE46F1AFDEF7F0A2F85BD
:101C1000388920553D4F3A832983CF84D88838E1CD
:101C2000C30ED11C4F8558894A545D4F58874F8346
:101C30002F8538892C533D4F3A8729874F855889FE
:101C40004D535D4F5C874B87EF84F88852E5E51A6A
:101C50005DEFF50A2F8538892E543D4F3C832B8349
:101C60004F85588941545D4F5E874D87140125018A
:101C700054E1250E311C411C511CEF85F8898489E3
:101C80009589A689B789892B8A2B8B2B89F4AF85F7
:101C9000B88912968D919C911397DC01ED91FC917E
:101CA0000680F781E02D09959C0197FF15C037C18B
:101CB0000E944411DC01CB0188199909AA09BB09CA
:101CC000EF85F88924893589468957892817390786
:101CD0004A075B07E0F64BC1D3018D919C911197A8
:101CE000820F931F8D939C93F8014081518147305F
:101CF0005105D9F4AB81BC818D919C911197AC01B8
:101D00004F5F5F4F4D935C93EF85F889E80FF91FA4
:101D1000208FF70180819181019791838083892BA6
:101D200009F0ABCF88E090E02FC04115510521F5B7
:101D30002F3F310569F481E090E0F80191838083C1
:101D4000AD85BE852D923D924D925C92139795CFB5
:101D50000E944411DC01CB0188199909AA09BB0929
:101D600089389341A105B10508F487CFEF85F8893B
:101D7000EA54FD4F1082FBC041305105B1F42E3FB3
:101D8000310531F482E090E0D8018D939C9375CFBA
:101D9000F80111821082AF81B8858C9181116DCFCD
:101DA0008F8598890E94D00B68CF4230510569F425
:101DB000F70131832083AB81BC811D921C9283E0AB
:101DC00090E0F801918380832EC04330510561F487
:101DD000322F2227F70180819181280F391F31830B
:101DE000208384E090E0D0CF4430510581F460E05E
:101DF00071E00E94581A8F3F910531F485E090E020
:101E0000F8019183808339CF1182108236CF45301B
:101E1000510569F4E981FA8131832083E6E0F0E03D
:101E2000D801ED93FC93D3012D933C9326CF4630FC
:101E3000510599F4322F2227E981FA81808191811D
:101E4000280F391F31832083E7E0F0E0D801ED93BC
:101E5000FC93D7018D919C9162CF4830510509F0D8
:101E60000CCFF8011182108260E071E00E94581AD4
:101E70008F3F910509F001CFA981BA818D919C9185
:101E80000097C9F48F8598890E94D00B8F85988917
:101E90000E94080CEF85F889E954FD4F80829182F9
:101EA000A282B382ED81FE8180829182A282B3827E
:101EB0008FEF9FEF61C08A30910531F4B6018F85B5
:101EC00098890E94F10CD9CE8630910551F4B60163
:101ED00089859A850E94210A81E0AB85BC858C9317
:101EE000CCCE8B30910521F4EF81F8851082C5CEE0
:101EF000FC01E752FF4FEE0FFF1F2F853889E20FDD
:101F0000F31F80819181009709F4B7CEDC01ED9138
:101F1000FC910190F081E02DB6010995AECEEF85E0
:101F2000F889EA54FD4F8081882321F10F851889B3
:101F300009541D4FF80180819181A281B381A501CF
:101F40009401281B390B4A0B5B0BDA01C901853C54
:101F50009940A105B10570F08F8598890E94D00B3A
:101F6000D8018D929D92AD92BC92139703C08EEFD3
:101F70009FEF02C080E090E060960FB6F894DEBF5D
:101F80000FBECDBFDF91CF911F910F91FF90EF90CA
:101F9000DF90CF90BF90AF909F908F907F906F9089
:101FA0005F904F903F902F900895CF93DF93E6E09E
:101FB000F3E086819781EC01A881B9816481758104
:101FC000ED91FC914AE353E0099588E593E0DF91B8
:101FD000CF910C94AB0D84EE92E0909359038093D3
:101FE000580383E496E090935B0380935A0380E068
:101FF00091EEA0E0B0E080935C0390935D03A0932A
:102000005E03B0935F0310920E0680EC92E0909313
:102010001D0680931C0610921E0610921F06109239
:102020002006109221061092270610922606109282
:1020300028061092290610922A0610922B0610925A
:10204000310610923006109232061092330610922A
:102050003406109235061092390610923806E0EADE
:10206000F5E01192119285E0E23DF807D1F7E2ED3B
:10207000F5E01192119286E0E430F807D1F7E0E73D
:10208000F3E0119284E0E838F807D9F7E8E8F4E0E3
:10209000119285E0E03AF807D9F710926C0310929C
:1020A0006D0310926E0310926F0328ED32E03093AF
:1020B0003B0320933A038CEC92E090933D03809392
:1020C0003C0310923E0310923F0310924003109283
:1020D0004103109242031092430310924403109262
:1020E0004503109246031092470310924803109242
:1020F000490390934B0380934A0310924C03109230
:102100004D0310924E0310924F0310925003109201
:1021100051031092520310925303109254031092E1
:10212000550310925603109257034EEE52E050930F
:1021300011034093100330931703209316039093D9
:1021400019038093180310921A0310921B03109224
:102150001C0310921D0310921E0310921F03109275
:102160002003109221031092220310922303109255
:102170002403109225039093270380932603109243
:1021800028031092290310922A0310922B03109215
:102190002C0310922D0310922E0310922F031092F5
:1021A000300310923103109232031092330385E210
:1021B00091E0909335038093340381E090E0909315
:1021C00037038093360389E692E09093150380935A
:1021D000140382E792E090930703809306038AE357
:1021E00093E0909309038093080310920F031092D9
:1021F0000E0308951F920F920FB60F9211242F9382
:102200003F938F939F93AF93BF9380913B069091A1
:102210003C06A0913D06B0913E0630913A0623E07F
:10222000230F2D3720F40196A11DB11D05C026E80E
:10223000230F0296A11DB11D20933A0680933B0601
:1022400090933C06A0933D06B0933E0680913F06D6
:1022500090914006A0914106B09142060196A11DC1
:10226000B11D80933F0690934006A0934106B09322
:102270004206BF91AF919F918F913F912F910F9007
:102280000FBE0F901F9018952FB7F89460913B06E2
:1022900070913C0680913D0690913E062FBF0895B7
:1022A000789484B5826084BD84B5816084BD85B531
:1022B000826085BD85B5816085BDEEE6F0E08081F8
:1022C00081608083E1E8F0E0108280818260808319
:1022D000808181608083E0E8F0E08081816080839C
:1022E000E1EBF0E0808184608083E0EBF0E08081CE
:1022F00081608083EAE7F0E0808184608083808170
:102300008260808380818160808380818068808317
:102310001092C1000895833081F028F4813099F043
:102320008230A1F008958630A9F08730B9F084306A
:10233000D1F4809180008F7D03C0809180008F77E1
:1023400080938000089584B58F7702C084B58F7D17
:1023500084BD08958091B0008F7703C08091B00054
:102360008F7D8093B0000895CF93DF9390E0FC01C0
:10237000E458FF4F2491FC01E057FF4F84918823DC
:1023800061F190E0880F991FFC01E255FF4FC59164
:10239000D491FC01EC55FF4FA591B491611109C096
:1023A0009FB7F8948881209582238883EC912E230F
:1023B0000BC0623061F49FB7F8943881822F80950A
:1023C00083238883EC912E2B2C939FBF06C08FB75D
:1023D000F894E8812E2B28838FBFDF91CF91089549
:1023E0001F93CF93DF93282F30E0F901E859FF4F77
:1023F0008491F901E458FF4FD491F901E057FF4F60
:10240000C491CC23C9F0162F81110E948B11EC2F9F
:10241000F0E0EE0FFF1FEC55FF4FA591B4918FB781
:10242000F894111105C09C91ED2FE095E92302C0AD
:10243000EC91ED2BEC938FBFDF91CF911F9108951D
:102440006F927F928F929F92AF92BF92CF92DF92C4
:10245000EF92FF920F931F93CF93DF93EC010097BE
:1024600089F4CB01DF91CF911F910F91FF90EF90F5
:10247000DF90CF90BF90AF909F908F907F906F90A4
:102480000C940913FC01E60FF71F9C01225031093F
:10249000E217F30708F4ACC0D9010D911C91119714
:1024A00006171707B0F00530110508F49FC0C801E2
:1024B00004978617970708F499C002501109061B64
:1024C000170B019311936D937C93CF010E949E1380
:1024D0008DC05B01A01AB10A4C01800E911EA09123
:1024E0002A07B0912B0740E050E0E12CF12C109727
:1024F00009F44AC0A815B905D1F56D907C901197E3
:10250000630182E0C80ED11CCA14DB0480F1A30170
:102510004A195B096A0182E0C80ED11C1296BC9070
:1025200012971396AC91B5E0CB16D10440F0B2826D
:10253000A38351834083D9016D937C930AC00E5FBE
:102540001F4FC301800F911FF90191838083EB2DF1
:10255000FA2FE114F10431F0D7011396FC93EE93B6
:10256000129744C0F0932B07E0932A073FC08D9148
:102570009C9111974817590708F4AC017D011296F8
:102580000D90BC91A02DB3CF809128079091290781
:1025900088159905E1F446175707C8F480910001A2
:1025A00090910101009741F48DB79EB740910401CD
:1025B00050910501841B950BE817F907C8F4F093B7
:1025C0002907E0932807F901718360830FC0CB01CD
:1025D0000E9409137C01009759F0A801BE010E94D6
:1025E0000118CE010E949E13C70104C0CE0102C093
:1025F00080E090E0DF91CF911F910F91FF90EF90DD
:10260000DF90CF90BF90AF909F908F907F906F9012
:102610000895CF93DF938230910510F482E090E02B
:10262000E0912A07F0912B0720E030E0C0E0D0E0F5
:10263000309711F14081518148175907C0F0481770
:10264000590761F482819381209719F09B838A83D3
:102650002BC090932B0780932A0726C021153105A4
:1026600019F04217530718F49A01BE01DF01EF0178
:102670000280F381E02DDCCF2115310509F1281B03
:10268000390B2430310590F412968D919C9113975B
:102690006115710521F0FB019383828304C090933F
:1026A0002B0780932A07FD01329644C0FD01E20FFB
:1026B000F31F81939193225031092D933C933AC09B
:1026C0002091280730912907232B41F42091020102
:1026D00030910301309329072093280720910001AE
:1026E000309101012115310541F42DB73EB74091DC
:1026F000040150910501241B350BE0912807F0914E
:102700002907E217F307A0F42E1B3F0B2817390700
:1027100078F0AC014E5F5F4F2417350748F04E0F3D
:102720005F1F50932907409328078193919302C01C
:10273000E0E0F0E0CF01DF91CF9108950F931F9378
:10274000CF93DF93009709F48CC0FC01329713827A
:10275000128200912A0710912B070115110581F4AF
:1027600020813181820F931F209128073091290702
:102770002817390779F5F0932907E093280771C0E6
:10278000D80140E050E0AE17BF0750F412962D91EB
:102790003C911397AD012115310509F1D901F3CF12
:1027A0009D01DA013383228360817181860F971F37
:1027B0008217930769F4EC0128813981260F371FAE
:1027C0002E5F3F4F318320838A819B819383828355
:1027D000452B29F4F0932B07E0932A0742C0139668
:1027E000FC93EE931297ED01499159919E01240FAC
:1027F000351FE217F30771F480819181840F951FD3
:10280000029611969C938E938281938113969C934A
:102810008E931297E0E0F0E0D80112968D919C9192
:102820001397009719F0F8018C01F6CF8D919C91C8
:1028300098012E5F3F4F820F931F20912807309100
:1028400029072817390769F4309729F410922B07C4
:1028500010922A0702C01382128210932907009354
:102860002807DF91CF911F910F9108950E94501179
:102870000E948A06C7E1D5E10E94D50F2097E1F3B7
:102880000E941715F9CFFC0124853585F901E05C1C
:10289000FF4F80819181329620813181821B930B81
:1028A0008F7399270895DC011C96ED91FC911D977B
:1028B000DF01A05CBF4F2D913C91119712968D9135
:1028C0009C9111972817390739F08D919C91E80F49
:1028D000F91F808190E008958FEF9FEF0895FC012C
:1028E000A485B585FD01E05CFF4F208131813296E2
:1028F000808191812817390779F080819181A80F13
:10290000B91F8C91208131812F5F3F4F2F73332767
:102910003183208390E008958FEF9FEF0895FC01AD
:1029200081A1882329F0A489B5898C9186FFFBCFEA
:1029300011A208950F931F93CF93DF93FC01A685F7
:10294000B7858D01005C1F4FE80188819981019650
:102950008F739927AD014E5B5F4FEA012881398162
:1029600082179307D1F3E80128813981A20FB31FA1
:102970006C93A685B785A05CBF4F11969C938E93F0
:10298000A689B7892C9181E090E0078C02C0880F5E
:10299000991F0A94E2F7822B8C9381E081A304882B
:1029A000F589E02D80818064808381E090E0DF9173
:1029B000CF911F910F91089508951F920F920FB616
:1029C0000F9211242F934F935F938F939F93EF93C5
:1029D000FF938091C00082FD1CC02091C6008091B1
:1029E000E9069091EA0601968F7399274091EB06CC
:1029F0005091EC068417950771F0E091E906F0918B
:102A0000EA06E755F94F20839093EA068093E9069A
:102A100002C08091C600FF91EF919F918F915F91CD
:102A20004F912F910F900FBE0F901F90189583E438
:102A300096E00E944314892B11F00C94DC14089545
:102A40001F920F920FB60F9211242F933F938F93E3
:102A50009F93EF93FF932091A5063091A606809156
:102A6000A7069091A8062817390731F48091C10074
:102A70008F7D8093C10014C0E091A706F091A80655
:102A8000EB59F94F20818091A7069091A8060196F5
:102A90008F7399279093A8068093A7062093C6006A
:102AA000FF91EF919F918F913F912F910F900FBECA
:102AB0000F901F901895CF92DF92EF92FF920F9395
:102AC0001F93CF93DF93EC016A017B014115514EB7
:102AD0006105710509F1EC89FD8981E090E008A0AC
:102AE00002C0880F991F0A94E2F7808360E079E0C2
:102AF0008DE390E0A70196010E946C1A89019A016A
:102B00000150110921093109369527951795079527
:102B1000980101151041A8F0EC89FD89108260E848
:102B200074E88EE190E0A70196010E946C1ADA0128
:102B3000C9010197A109B109B695A7959795879500
:102B40009C01E889F9893083EA89FB89208319A2ED
:102B5000EE89FF89408181E090E09C010C8C02C0ED
:102B6000220F331F0A94E2F7242B2083EE89FF897A
:102B700040819C010D8C02C0220F331F0A94E2F7A2
:102B8000242B2083EE89FF8940819C010E8C02C09A
:102B9000220F331F0A94E2F7242B2083EE89FF894A
:102BA00020810F8C02C0880F991F0A94E2F780954C
:102BB00082238083DF91CF911F910F91FF90EF903F
:102BC000DF90CF900895E3E4F6E01382128288EE5E
:102BD00093E0A0E0B0E084839583A683B7838AEF77
:102BE00092E09183808389EA96E09587848785E6E1
:102BF00096E09787868785EC90E0918B808B84ECBC
:102C000090E0938B828B80EC90E0958B848B81ECB1
:102C100090E0978B868B82EC90E0918F808F86EC92
:102C200090E0938F828F84E0848F83E0858F87E0AC
:102C3000868F85E0878F81E080A308951092B00091
:102C400081E08093B1008093700008950F931F93EB
:102C5000CF93DF938091EE068330C9F1C22FD42F3A
:102C6000862FE091EE0693E19E9FF0011124E15141
:102C7000F94F6083E091EE069E9FF0011124E1512F
:102C8000F94F4183E091EE069E9FF0011124E1513E
:102C9000F94F2283E091EE069E9FF0011124E1514D
:102CA000F94F1483038361E00E94B41161E08D2F1A
:102CB0000E94B411CF3F21F061E08C2F0E94B4112B
:102CC0008091EE0691E0980F9093EE0601C08FEF91
:102CD000DF91CF911F910F9108958091EE066817B3
:102CE00068F483E1689FF0011124E151F94F82817A
:102CF0008F3F21F0828160E00C94F01108950F93D2
:102D00001F93CF938091EE066817D8F4C42F062F37
:102D100010E083E1689FF0011124E151F94F8181B6
:102D2000642F0E94F011C13011F08FEF01C081E0DB
:102D300093E1909FF001919FF00D1124E151F94F23
:102D40008187CF911F910F9108958091EE066817AA
:102D5000D0F4CA0101970F9710F440E150E08FB70B
:102D6000F89494E0569547959A95E1F793E1699F19
:102D7000F0011124E151F94F568745871786108AD3
:102D8000118A128A8FBF08958F929F92AF92BF923D
:102D9000EF92FF921F93CF93DF937C01162FEA01EE
:102DA0008091EE06681750F52097D1F083E1689F77
:102DB000F0011124E151F94F2381348140E050E0CA
:102DC00060E077E883E993E00E948E1A4E01A12C1F
:102DD000B12CCA01B901A50194010E948E1AE90122
:102DE000AE01612FC701DF91CF911F91FF90EF904E
:102DF000BF90AF909F908F900C94A516DF91CF91CC
:102E00001F91FF90EF90BF90AF909F908F9008958B
:102E10001F920F920FB60F9211240F931F932F93AF
:102E20003F934F935F936F937F938F939F93AF9352
:102E3000BF93CF93DF93EF93FF9310E003E1809173
:102E4000EE06181708F06FC0C12FD0E00C9FF001FC
:102E50000D9FF00D1124E151F94F83859485892B45
:102E600021F08385948501975AC085859685892BA5
:102E700009F44CC08285882319F0808161E002C08A
:102E8000808160E00E94F0110C9FF0010D9FF00D19
:102E90001124E151F94F8185458156816781708503
:102EA000082E000C990BAA0BBB0B840F951FA61FB5
:102EB000B71F85839683A783B087928581E09111A0
:102EC00080E00C9FF0010D9FF00D1124E151F94FAE
:102ED000828787859089A189B289892B8A2B8B2B40
:102EE000A9F087859089A189B2890197A109B109C3
:102EF0008787908BA18BB28B87859089A189B289B6
:102F0000892B8A2B8B2B11F4168615860C9FF001CA
:102F10000D9FF00D1124E151F94F85859685948719
:102F200083871F5F8CCFFF91EF91DF91CF91BF918E
:102F3000AF919F918F917F916F915F914F913F9151
:102F40002F911F910F910F900FBE0F901F9018950A
:102F5000CF92DF92EF92FF920F931F93CF93DF9365
:102F60008C01EB01688179818A819B8120E03AECB8
:102F70004AE95BE30E946C1AF801C080D180E280CC
:102F8000F380C20ED31EE41EF51EC082D182E282FF
:102F9000F382688379838A839B83DF91CF911F912A
:102FA0000F91FF90EF90DF90CF900895CF92DF9236
:102FB000EF92FF920F931F93CF93DF936C01EB017E
:102FC0007B01E40EF51E00E010E0CE15DF0561F098
:102FD0006991D601ED91FC910190F081E02DC6013F
:102FE0000995080F191FF1CFC801DF91CF911F91EB
:102FF0000F91FF90EF90DF90CF900895F8940C948C
:10300000E11AFB01DC0102C001900D9241505040D9
:10301000D8F708955058BB27AA270E9422180C946D
:103020009C190E948E1938F00E94951920F039F4ED
:103030009F3F19F426F40C948B190EF4E095E7FBEE
:103040000C948519E92F0E94AD1958F3BA1762073D
:1030500073078407950720F079F4A6F50C94CF192F
:103060000EF4E0950B2EBA2FA02D0B01B9019001A3
:103070000C01CA01A0011124FF27591B99F0593FE7
:1030800050F4503E68F11A16F040A22F232F342F2F
:103090004427585FF3CF469537952795A795F0407D
:1030A0005395C9F77EF41F16BA0B620B730B840B92
:1030B000BAF09150A1F0FF0FBB1F661F771F881F4A
:1030C000C2F70EC0BA0F621F731F841F48F48795A2
:1030D00077956795B795F7959E3F08F0B0CF939594
:1030E000880F08F09927EE0F9795879508950E940D
:1030F000611908F481E008950E9490180C949C19BD
:103100000E94951958F00E948E1940F029F45F3FF3
:1031100029F00C94851951110C94D0190C948B1929
:103120000E94AD1968F39923B1F3552391F3951BD0
:10313000550BBB27AA2762177307840738F09F5FD8
:103140005F4F220F331F441FAA1FA9F335D00E2E45
:103150003AF0E0E832D091505040E695001CCAF7B2
:103160002BD0FE2F29D0660F771F881FBB1F261775
:1031700037074807AB07B0E809F0BB0B802DBF014C
:10318000FF2793585F4F3AF09E3F510578F00C941B
:1031900085190C94D0195F3FE4F3983ED4F38695DB
:1031A00077956795B795F7959F5FC9F7880F911D3C
:1031B0009695879597F90895E1E0660F771F881F28
:1031C000BB1F621773078407BA0720F0621B730BDB
:1031D000840BBA0BEE1F88F7E09508950E94F5184E
:1031E0006894B1110C94D01908950E94B51988F013
:1031F0009F5798F0B92F9927B751B0F0E1F0660FBB
:10320000771F881F991F1AF0BA95C9F714C0B130FB
:1032100091F00E94CF19B1E008950C94CF19672F57
:10322000782F8827B85F39F0B93FCCF3869577952A
:103230006795B395D9F73EF4909580957095619513
:103240007F4F8F4F9F4F0895E89409C097FB3EF43E
:1032500090958095709561957F4F8F4F9F4F9923E3
:10326000A9F0F92F96E9BB279395F6958795779561
:103270006795B795F111F8CFFAF4BB0F11F460FF21
:103280001BC06F5F7F4F8F4F9F4F16C0882311F079
:1032900096E911C0772321F09EE8872F762F05C08D
:1032A000662371F096E8862F70E060E02AF09A9528
:1032B000660F771F881FDAF7880F9695879597F91D
:1032C0000895990F0008550FAA0BE0E8FEEF1616B7
:1032D0001706E807F907C0F012161306E407F5070A
:1032E00098F0621B730B840B950B39F40A2661F07E
:1032F000232B242B252B21F408950A2609F4A14021
:10330000A6958FEF811D811D089597F99F6780E82D
:1033100070E060E008959FEF80EC089500240A9427
:103320001616170618060906089500240A941216A0
:103330001306140605060895092E0394000C11F4D3
:10334000882352F0BB0F40F4BF2B11F460FF04C080
:103350006F5F7F4F8F4F9F4F089557FD9058440FD9
:10336000551F59F05F3F71F04795880F97FB991FE4
:1033700061F09F3F79F087950895121613061406A1
:10338000551FF2CF4695F1DF08C01616170618062E
:10339000991FF1CF86957105610508940895E89409
:1033A000BB2766277727CB0197F908950E946119FB
:1033B00008F48FEF08950E94EE190C949C190E9456
:1033C0008E1938F00E94951920F0952311F00C9475
:1033D00085190C948B1911240C94D0190E94AD19E5
:1033E00070F3959FC1F3950F50E0551F629FF00158
:1033F000729FBB27F00DB11D639FAA27F00DB11D71
:10340000AA1F649F6627B00DA11D661F829F2227F9
:10341000B00DA11D621F739FB00DA11D621F839F80
:10342000A00D611D221F749F3327A00D611D231F56
:10343000849F600D211D822F762F6A2F11249F57A4
:1034400050409AF0F1F088234AF0EE0FFF1FBB1FA7
:10345000661F771F881F91505040A9F79E3F510566
:1034600080F00C9485190C94D0195F3FE4F3983EDA
:10347000D4F3869577956795B795F795E7959F5F10
:10348000C1F7FE2B880F911D9695879597F90895A2
:10349000DB018F939F930E94AD1ABF91AF91A29FC2
:1034A000800D911DA39F900DB29F900D1124089542
:1034B00097FB072E16F4009407D077FD09D00E94E1
:1034C000B81A07FC05D03EF4909581959F4F08955A
:1034D000709561957F4F0895A1E21A2EAA1BBB1B20
:1034E000FD010DC0AA1FBB1FEE1FFF1FA217B307D0
:1034F000E407F50720F0A21BB30BE40BF50B661FE6
:10350000771F881F991F1A9469F7609570958095A9
:1035100090959B01AC01BD01CF010895052E97FB4D
:103520001EF400940E94A51A57FD07D00E946C1A41
:1035300007FC03D04EF40C94A51A50954095309595
:1035400021953F4F4F4F5F4F08959095809570950F
:1035500061957F4F8F4F9F4F08950E94D21AA59F6C
:10356000900DB49F900DA49F800D911D112408957E
:10357000AA1BBB1B51E107C0AA1FBB1FA617B70799
:1035800010F0A61BB70B881F991F5A95A9F78095B5
:103590009095BC01CD010895EE0FFF1F0590F491A9
:1035A000E02D0994A29FB001B39FC001A39F700DAD
:1035B000811D1124911DB29F700D811D1124911D3B
:0635C0000895F894FFCF0E
:1035C60000002C0780007374645F6D7367732F545B
:1035D600696D650063643731363663373463353574
:1035E60032633331316662636332666535613762F1
:1035F6006332383900726F7373657269616C5F6D1F
:103606007367732F546F706963496E666F0030611C
:10361600643531663838666334343839326638632F
:10362600313036383430373736343630303500724C
:103636006F7373657269616C5F6D7367732F4C6F1F
:103646006700313161626437333163323539333380
:10365600323631636436313833626431326436323D
:10366600393500396630653938626461363539383E
:1036760031393836646466353361666137613430B2
:103686006534390067656F6D657472795F6D736750
:10369600732F566563746F72330034613834326247
:1036A60036356634313330383464633262313066ED
:1036B600623438346561376631370067656F6D652A
:1036C6007472795F6D7367732F54776973740039F9
:1036D6006631393566383831323436666466613279
:1036E6003739386431643365656263613834610043
:1036F6004D6573736167652066726F6D20646576CC
:103706006963652064726F707065643A206D6573D5
:1037160073616765206C6172676572207468616E9B
:10372600206275666665722E002F636D645F76652E
:103736006C002F696E666F5F76656C00726F7373CF
:10374600657269616C5F6D7367732F52657175651C
:103756007374506172616D00000000008800AC0057
:10376600F200F500000000002C083109F800FB000B
:10377600000000000008D908FE000101000000005A
:103786003407210A04010701000000003F052F0647
:103796000A010D01000000006F0559061001130112
:1037A600000000001B04AB0D2001000000007506A0
:1037B60016011A011D01000000009A14D6174314C1
:0637C6006F1453148F1470
:00000001FF
